{
    "_format": "hh-sol-artifact-1",
    "contractName": "Presale",
    "sourceName": "contracts/Presale.sol",
    "abi": [
        {
            "inputs": [],
            "stateMutability": "nonpayable",
            "type": "constructor"
        },
        {
            "anonymous": false,
            "inputs": [
                {
                    "indexed": true,
                    "internalType": "address",
                    "name": "previousOwner",
                    "type": "address"
                },
                {
                    "indexed": true,
                    "internalType": "address",
                    "name": "newOwner",
                    "type": "address"
                }
            ],
            "name": "OwnershipTransferred",
            "type": "event"
        },
        {
            "anonymous": false,
            "inputs": [
                {
                    "indexed": false,
                    "internalType": "address",
                    "name": "",
                    "type": "address"
                },
                {
                    "indexed": false,
                    "internalType": "uint256",
                    "name": "",
                    "type": "uint256"
                }
            ],
            "name": "TransactionHandler",
            "type": "event"
        },
        {
            "anonymous": false,
            "inputs": [
                {
                    "indexed": false,
                    "internalType": "uint256",
                    "name": "",
                    "type": "uint256"
                },
                {
                    "indexed": false,
                    "internalType": "uint256",
                    "name": "",
                    "type": "uint256"
                },
                {
                    "indexed": false,
                    "internalType": "uint256",
                    "name": "",
                    "type": "uint256"
                },
                {
                    "indexed": false,
                    "internalType": "string",
                    "name": "",
                    "type": "string"
                }
            ],
            "name": "purchaseStarted",
            "type": "event"
        },
        {
            "inputs": [
                {
                    "internalType": "address payable",
                    "name": "_reciever",
                    "type": "address"
                }
            ],
            "name": "_setReciever",
            "outputs": [],
            "stateMutability": "nonpayable",
            "type": "function"
        },
        {
            "inputs": [],
            "name": "buyers",
            "outputs": [
                {
                    "internalType": "uint256",
                    "name": "_value",
                    "type": "uint256"
                }
            ],
            "stateMutability": "view",
            "type": "function"
        },
        {
            "inputs": [
                {
                    "internalType": "uint256",
                    "name": "",
                    "type": "uint256"
                }
            ],
            "name": "buyersCount",
            "outputs": [
                {
                    "internalType": "address",
                    "name": "",
                    "type": "address"
                }
            ],
            "stateMutability": "view",
            "type": "function"
        },
        {
            "inputs": [],
            "name": "deadline",
            "outputs": [
                {
                    "internalType": "uint256",
                    "name": "",
                    "type": "uint256"
                }
            ],
            "stateMutability": "view",
            "type": "function"
        },
        {
            "inputs": [],
            "name": "getAllTransactions",
            "outputs": [
                {
                    "components": [
                        {
                            "internalType": "address",
                            "name": "buyer",
                            "type": "address"
                        },
                        {
                            "internalType": "uint256",
                            "name": "tokensPurchased",
                            "type": "uint256"
                        },
                        {
                            "internalType": "uint256",
                            "name": "counter",
                            "type": "uint256"
                        }
                    ],
                    "internalType": "struct Presale.Buyer[]",
                    "name": "",
                    "type": "tuple[]"
                }
            ],
            "stateMutability": "view",
            "type": "function"
        },
        {
            "inputs": [],
            "name": "hasElapsed",
            "outputs": [
                {
                    "internalType": "bool",
                    "name": "",
                    "type": "bool"
                }
            ],
            "stateMutability": "view",
            "type": "function"
        },
        {
            "inputs": [],
            "name": "owner",
            "outputs": [
                {
                    "internalType": "address",
                    "name": "",
                    "type": "address"
                }
            ],
            "stateMutability": "view",
            "type": "function"
        },
        {
            "inputs": [],
            "name": "renounceOwnership",
            "outputs": [],
            "stateMutability": "nonpayable",
            "type": "function"
        },
        {
            "inputs": [
                {
                    "internalType": "uint256",
                    "name": "_amountOfTokens",
                    "type": "uint256"
                }
            ],
            "name": "sendBNB",
            "outputs": [],
            "stateMutability": "payable",
            "type": "function"
        },
        {
            "inputs": [
                {
                    "internalType": "uint256",
                    "name": "_duration",
                    "type": "uint256"
                }
            ],
            "name": "startPurchase",
            "outputs": [],
            "stateMutability": "nonpayable",
            "type": "function"
        },
        {
            "inputs": [],
            "name": "startTime",
            "outputs": [
                {
                    "internalType": "uint256",
                    "name": "",
                    "type": "uint256"
                }
            ],
            "stateMutability": "view",
            "type": "function"
        },
        {
            "inputs": [],
            "name": "totalTokenPurchased",
            "outputs": [
                {
                    "internalType": "uint256",
                    "name": "",
                    "type": "uint256"
                }
            ],
            "stateMutability": "view",
            "type": "function"
        },
        {
            "inputs": [],
            "name": "transactionCount",
            "outputs": [
                {
                    "internalType": "uint256",
                    "name": "_value",
                    "type": "uint256"
                }
            ],
            "stateMutability": "view",
            "type": "function"
        },
        {
            "inputs": [
                {
                    "internalType": "address",
                    "name": "newOwner",
                    "type": "address"
                }
            ],
            "name": "transferOwnership",
            "outputs": [],
            "stateMutability": "nonpayable",
            "type": "function"
        },
        {
            "inputs": [
                {
                    "internalType": "address",
                    "name": "",
                    "type": "address"
                }
            ],
            "name": "userAccounts",
            "outputs": [
                {
                    "internalType": "address",
                    "name": "buyer",
                    "type": "address"
                },
                {
                    "internalType": "uint256",
                    "name": "tokensPurchased",
                    "type": "uint256"
                },
                {
                    "internalType": "uint256",
                    "name": "counter",
                    "type": "uint256"
                }
            ],
            "stateMutability": "view",
            "type": "function"
        }
    ],
    "bytecode": "0x608060405234801561001057600080fd5b5061002d61002261007360201b60201c565b61007b60201b60201c565b33600560006101000a81548173ffffffffffffffffffffffffffffffffffffffff021916908373ffffffffffffffffffffffffffffffffffffffff16021790555061013f565b600033905090565b60008060009054906101000a900473ffffffffffffffffffffffffffffffffffffffff169050816000806101000a81548173ffffffffffffffffffffffffffffffffffffffff021916908373ffffffffffffffffffffffffffffffffffffffff1602179055508173ffffffffffffffffffffffffffffffffffffffff168173ffffffffffffffffffffffffffffffffffffffff167f8be0079c531659141344cd1fd0a4f28419497f9722a3daafe3b4186f6b6457e060405160405180910390a35050565b6116c28061014e6000396000f3fe6080604052600436106100e85760003560e01c806378e979251161008a578063d3a9c61211610059578063d3a9c612146102d4578063df3f6c25146102ff578063f2fde38b1461031b578063fd15188114610344576100e8565b806378e979251461022a5780638da5cb5b14610255578063b77bf60014610280578063cde5a438146102ab576100e8565b806347ed5089116100c657806347ed50891461016c5780635251d91c146101a95780636577fe3e146101e8578063715018a614610213576100e8565b806307b1a929146100ed57806327506f531461011657806329dcb0cf14610141575b600080fd5b3480156100f957600080fd5b50610114600480360381019061010f9190610d64565b61036f565b005b34801561012257600080fd5b5061012b610423565b6040516101389190610ed2565b60405180910390f35b34801561014d57600080fd5b506101566105c9565b6040516101639190610f03565b60405180910390f35b34801561017857600080fd5b50610193600480360381019061018e9190610d64565b6105cf565b6040516101a09190610f2d565b60405180910390f35b3480156101b557600080fd5b506101d060048036038101906101cb9190610f74565b610602565b6040516101df93929190610fa1565b60405180910390f35b3480156101f457600080fd5b506101fd61064c565b60405161020a9190610f03565b60405180910390f35b34801561021f57600080fd5b50610228610658565b005b34801561023657600080fd5b5061023f61066c565b60405161024c9190610f03565b60405180910390f35b34801561026157600080fd5b5061026a610672565b6040516102779190610f2d565b60405180910390f35b34801561028c57600080fd5b5061029561069b565b6040516102a29190610f03565b60405180910390f35b3480156102b757600080fd5b506102d260048036038101906102cd9190611016565b6106a7565b005b3480156102e057600080fd5b506102e96106f3565b6040516102f6919061105e565b60405180910390f35b61031960048036038101906103149190610d64565b6106ff565b005b34801561032757600080fd5b50610342600480360381019061033d9190610f74565b610afb565b005b34801561035057600080fd5b50610359610b7e565b6040516103669190610f03565b60405180910390f35b610377610b84565b600081116103ba576040517f08c379a00000000000000000000000000000000000000000000000000000000081526004016103b1906110fc565b60405180910390fd5b42600781905550603c816103ce919061114b565b6007546103db919061118d565b6006819055507fcefd68b79c774ea346bdf3a06c73384a7d649e9a19105ed1e07e08d04044bc466007546006548360405161041893929190611233565b60405180910390a150565b606060006104316002610c02565b905060008167ffffffffffffffff81111561044f5761044e61127d565b5b60405190808252806020026020018201604052801561048857816020015b610475610cf2565b81526020019060019003908161046d5790505b50905060005b828110156105c057600060086000600960006001866104ad919061118d565b815260200190815260200160002060009054906101000a900473ffffffffffffffffffffffffffffffffffffffff1673ffffffffffffffffffffffffffffffffffffffff1673ffffffffffffffffffffffffffffffffffffffff1681526020019081526020016000209050806040518060600160405290816000820160009054906101000a900473ffffffffffffffffffffffffffffffffffffffff1673ffffffffffffffffffffffffffffffffffffffff1673ffffffffffffffffffffffffffffffffffffffff168152602001600182015481526020016002820154815250508383815181106105a1576105a06112ac565b5b60200260200101819052505080806105b8906112db565b91505061048e565b50809250505090565b60065481565b60096020528060005260406000206000915054906101000a900473ffffffffffffffffffffffffffffffffffffffff1681565b60086020528060005260406000206000915090508060000160009054906101000a900473ffffffffffffffffffffffffffffffffffffffff16908060010154908060020154905083565b60028060000154905081565b610660610b84565b61066a6000610c10565b565b60075481565b60008060009054906101000a900473ffffffffffffffffffffffffffffffffffffffff16905090565b60018060000154905081565b6106af610b84565b80600560006101000a81548173ffffffffffffffffffffffffffffffffffffffff021916908373ffffffffffffffffffffffffffffffffffffffff16021790555050565b60004260065411905090565b6006544210610743576040517f08c379a000000000000000000000000000000000000000000000000000000000815260040161073a9061136f565b60405180910390fd5b60008111610786576040517f08c379a000000000000000000000000000000000000000000000000000000000815260040161077d90611401565b60405180910390fd5b600034116107c9576040517f08c379a00000000000000000000000000000000000000000000000000000000081526004016107c090611493565b60405180910390fd5b600080600560009054906101000a900473ffffffffffffffffffffffffffffffffffffffff1673ffffffffffffffffffffffffffffffffffffffff1634604051610812906114e4565b60006040518083038185875af1925050503d806000811461084f576040519150601f19603f3d011682016040523d82523d6000602084013e610854565b606091505b509150915081610899576040517f08c379a000000000000000000000000000000000000000000000000000000000815260040161089090611545565b60405180910390fd5b82600360008282546108ab919061118d565b9250508190555034600460008282546108c4919061118d565b925050819055506108d56001610cd4565b6000600860003373ffffffffffffffffffffffffffffffffffffffff1673ffffffffffffffffffffffffffffffffffffffff168152602001908152602001600020600101540361098b576109296002610cd4565b60006109356002610c02565b9050336009600083815260200190815260200160002060006101000a81548173ffffffffffffffffffffffffffffffffffffffff021916908373ffffffffffffffffffffffffffffffffffffffff160217905550505b82600860003373ffffffffffffffffffffffffffffffffffffffff1673ffffffffffffffffffffffffffffffffffffffff16815260200190815260200160002060010160008282546109dd919061118d565b92505081905550600860003373ffffffffffffffffffffffffffffffffffffffff1673ffffffffffffffffffffffffffffffffffffffff1681526020019081526020016000206002016000815480929190610a37906112db565b919050555033600860003373ffffffffffffffffffffffffffffffffffffffff1673ffffffffffffffffffffffffffffffffffffffff16815260200190815260200160002060000160006101000a81548173ffffffffffffffffffffffffffffffffffffffff021916908373ffffffffffffffffffffffffffffffffffffffff1602179055507fb44379d677f48622c48ecf85c5aabc18796e97b10eaabb5c1d2da85fe4cc756b3384604051610aee929190611565565b60405180910390a1505050565b610b03610b84565b600073ffffffffffffffffffffffffffffffffffffffff168173ffffffffffffffffffffffffffffffffffffffff1603610b72576040517f08c379a0000000000000000000000000000000000000000000000000000000008152600401610b6990611600565b60405180910390fd5b610b7b81610c10565b50565b60035481565b610b8c610cea565b73ffffffffffffffffffffffffffffffffffffffff16610baa610672565b73ffffffffffffffffffffffffffffffffffffffff1614610c00576040517f08c379a0000000000000000000000000000000000000000000000000000000008152600401610bf79061166c565b60405180910390fd5b565b600081600001549050919050565b60008060009054906101000a900473ffffffffffffffffffffffffffffffffffffffff169050816000806101000a81548173ffffffffffffffffffffffffffffffffffffffff021916908373ffffffffffffffffffffffffffffffffffffffff1602179055508173ffffffffffffffffffffffffffffffffffffffff168173ffffffffffffffffffffffffffffffffffffffff167f8be0079c531659141344cd1fd0a4f28419497f9722a3daafe3b4186f6b6457e060405160405180910390a35050565b6001816000016000828254019250508190555050565b600033905090565b6040518060600160405280600073ffffffffffffffffffffffffffffffffffffffff16815260200160008152602001600081525090565b600080fd5b6000819050919050565b610d4181610d2e565b8114610d4c57600080fd5b50565b600081359050610d5e81610d38565b92915050565b600060208284031215610d7a57610d79610d29565b5b6000610d8884828501610d4f565b91505092915050565b600081519050919050565b600082825260208201905092915050565b6000819050602082019050919050565b600073ffffffffffffffffffffffffffffffffffffffff82169050919050565b6000610de882610dbd565b9050919050565b610df881610ddd565b82525050565b610e0781610d2e565b82525050565b606082016000820151610e236000850182610def565b506020820151610e366020850182610dfe565b506040820151610e496040850182610dfe565b50505050565b6000610e5b8383610e0d565b60608301905092915050565b6000602082019050919050565b6000610e7f82610d91565b610e898185610d9c565b9350610e9483610dad565b8060005b83811015610ec5578151610eac8882610e4f565b9750610eb783610e67565b925050600181019050610e98565b5085935050505092915050565b60006020820190508181036000830152610eec8184610e74565b905092915050565b610efd81610d2e565b82525050565b6000602082019050610f186000830184610ef4565b92915050565b610f2781610ddd565b82525050565b6000602082019050610f426000830184610f1e565b92915050565b610f5181610ddd565b8114610f5c57600080fd5b50565b600081359050610f6e81610f48565b92915050565b600060208284031215610f8a57610f89610d29565b5b6000610f9884828501610f5f565b91505092915050565b6000606082019050610fb66000830186610f1e565b610fc36020830185610ef4565b610fd06040830184610ef4565b949350505050565b6000610fe382610dbd565b9050919050565b610ff381610fd8565b8114610ffe57600080fd5b50565b60008135905061101081610fea565b92915050565b60006020828403121561102c5761102b610d29565b5b600061103a84828501611001565b91505092915050565b60008115159050919050565b61105881611043565b82525050565b6000602082019050611073600083018461104f565b92915050565b600082825260208201905092915050565b7f4475726174696f6e206d7573742062652067726561746572207468616e207a6560008201527f726f000000000000000000000000000000000000000000000000000000000000602082015250565b60006110e6602283611079565b91506110f18261108a565b604082019050919050565b60006020820190508181036000830152611115816110d9565b9050919050565b7f4e487b7100000000000000000000000000000000000000000000000000000000600052601160045260246000fd5b600061115682610d2e565b915061116183610d2e565b925082820261116f81610d2e565b915082820484148315176111865761118561111c565b5b5092915050565b600061119882610d2e565b91506111a383610d2e565b92508282019050808211156111bb576111ba61111c565b5b92915050565b7f456c656374696f6e20686173206265656e20737461727465642062792074686560008201527f2061646d696e0000000000000000000000000000000000000000000000000000602082015250565b600061121d602683611079565b9150611228826111c1565b604082019050919050565b60006080820190506112486000830186610ef4565b6112556020830185610ef4565b6112626040830184610ef4565b818103606083015261127381611210565b9050949350505050565b7f4e487b7100000000000000000000000000000000000000000000000000000000600052604160045260246000fd5b7f4e487b7100000000000000000000000000000000000000000000000000000000600052603260045260246000fd5b60006112e682610d2e565b91507fffffffffffffffffffffffffffffffffffffffffffffffffffffffffffffffff82036113185761131761111c565b5b600182019050919050565b7f50757263686173652074696d696e672068617320657870697265640000000000600082015250565b6000611359601b83611079565b915061136482611323565b602082019050919050565b600060208201905081810360008301526113888161134c565b9050919050565b7f546f6b656e20746f207075726368617365206d7573742062652067726561746560008201527f72207468616e207a65726f000000000000000000000000000000000000000000602082015250565b60006113eb602b83611079565b91506113f68261138f565b604082019050919050565b6000602082019050818103600083015261141a816113de565b9050919050565b7f416d6f756e74206465706f7369746564206d757374206265206772656174657260008201527f207468616e207a65726f00000000000000000000000000000000000000000000602082015250565b600061147d602a83611079565b915061148882611421565b604082019050919050565b600060208201905081810360008301526114ac81611470565b9050919050565b600081905092915050565b50565b60006114ce6000836114b3565b91506114d9826114be565b600082019050919050565b60006114ef826114c1565b9150819050919050565b7f4661696c656420746f2073656e6420424e420000000000000000000000000000600082015250565b600061152f601283611079565b915061153a826114f9565b602082019050919050565b6000602082019050818103600083015261155e81611522565b9050919050565b600060408201905061157a6000830185610f1e565b6115876020830184610ef4565b9392505050565b7f4f776e61626c653a206e6577206f776e657220697320746865207a65726f206160008201527f6464726573730000000000000000000000000000000000000000000000000000602082015250565b60006115ea602683611079565b91506115f58261158e565b604082019050919050565b60006020820190508181036000830152611619816115dd565b9050919050565b7f4f776e61626c653a2063616c6c6572206973206e6f7420746865206f776e6572600082015250565b6000611656602083611079565b915061166182611620565b602082019050919050565b6000602082019050818103600083015261168581611649565b905091905056fea2646970667358221220dc3051c2fffd75475d9f53f98669077ca4d41f4cd2cbd8905cd950ae2e33989064736f6c63430008110033",
    "linkReferences": {},
    "deployedLinkReferences": {}
}